{
  "contractName": "Database",
  "abi": [
    {
      "constant": true,
      "inputs": [
        {
          "name": "",
          "type": "bytes32"
        }
      ],
      "name": "bytes32Storage",
      "outputs": [
        {
          "name": "",
          "type": "bytes32"
        }
      ],
      "payable": false,
      "stateMutability": "view",
      "type": "function"
    },
    {
      "constant": true,
      "inputs": [
        {
          "name": "",
          "type": "bytes32"
        }
      ],
      "name": "addressStorage",
      "outputs": [
        {
          "name": "",
          "type": "address"
        }
      ],
      "payable": false,
      "stateMutability": "view",
      "type": "function"
    },
    {
      "constant": true,
      "inputs": [
        {
          "name": "",
          "type": "bytes32"
        }
      ],
      "name": "stringStorage",
      "outputs": [
        {
          "name": "",
          "type": "string"
        }
      ],
      "payable": false,
      "stateMutability": "view",
      "type": "function"
    },
    {
      "constant": true,
      "inputs": [
        {
          "name": "",
          "type": "bytes32"
        }
      ],
      "name": "boolStorage",
      "outputs": [
        {
          "name": "",
          "type": "bool"
        }
      ],
      "payable": false,
      "stateMutability": "view",
      "type": "function"
    },
    {
      "constant": true,
      "inputs": [
        {
          "name": "",
          "type": "bytes32"
        }
      ],
      "name": "bytesStorage",
      "outputs": [
        {
          "name": "",
          "type": "bytes"
        }
      ],
      "payable": false,
      "stateMutability": "view",
      "type": "function"
    },
    {
      "constant": true,
      "inputs": [
        {
          "name": "",
          "type": "bytes32"
        }
      ],
      "name": "intStorage",
      "outputs": [
        {
          "name": "",
          "type": "int256"
        }
      ],
      "payable": false,
      "stateMutability": "view",
      "type": "function"
    },
    {
      "constant": true,
      "inputs": [
        {
          "name": "",
          "type": "bytes32"
        }
      ],
      "name": "uintStorage",
      "outputs": [
        {
          "name": "",
          "type": "uint256"
        }
      ],
      "payable": false,
      "stateMutability": "view",
      "type": "function"
    },
    {
      "inputs": [
        {
          "name": "_ownerOne",
          "type": "address"
        }
      ],
      "payable": false,
      "stateMutability": "nonpayable",
      "type": "constructor"
    },
    {
      "anonymous": false,
      "inputs": [
        {
          "indexed": true,
          "name": "_ownerOne",
          "type": "address"
        }
      ],
      "name": "LogInitialized",
      "type": "event"
    },
    {
      "constant": false,
      "inputs": [
        {
          "name": "_key",
          "type": "bytes32"
        },
        {
          "name": "_value",
          "type": "address"
        }
      ],
      "name": "setAddress",
      "outputs": [],
      "payable": false,
      "stateMutability": "nonpayable",
      "type": "function"
    },
    {
      "constant": false,
      "inputs": [
        {
          "name": "_key",
          "type": "bytes32"
        },
        {
          "name": "_value",
          "type": "uint256"
        }
      ],
      "name": "setUint",
      "outputs": [],
      "payable": false,
      "stateMutability": "nonpayable",
      "type": "function"
    },
    {
      "constant": false,
      "inputs": [
        {
          "name": "_key",
          "type": "bytes32"
        },
        {
          "name": "_value",
          "type": "string"
        }
      ],
      "name": "setString",
      "outputs": [],
      "payable": false,
      "stateMutability": "nonpayable",
      "type": "function"
    },
    {
      "constant": false,
      "inputs": [
        {
          "name": "_key",
          "type": "bytes32"
        },
        {
          "name": "_value",
          "type": "bytes"
        }
      ],
      "name": "setBytes",
      "outputs": [],
      "payable": false,
      "stateMutability": "nonpayable",
      "type": "function"
    },
    {
      "constant": false,
      "inputs": [
        {
          "name": "_key",
          "type": "bytes32"
        },
        {
          "name": "_value",
          "type": "bytes32"
        }
      ],
      "name": "setBytes32",
      "outputs": [],
      "payable": false,
      "stateMutability": "nonpayable",
      "type": "function"
    },
    {
      "constant": false,
      "inputs": [
        {
          "name": "_key",
          "type": "bytes32"
        },
        {
          "name": "_value",
          "type": "bool"
        }
      ],
      "name": "setBool",
      "outputs": [],
      "payable": false,
      "stateMutability": "nonpayable",
      "type": "function"
    },
    {
      "constant": false,
      "inputs": [
        {
          "name": "_key",
          "type": "bytes32"
        },
        {
          "name": "_value",
          "type": "int256"
        }
      ],
      "name": "setInt",
      "outputs": [],
      "payable": false,
      "stateMutability": "nonpayable",
      "type": "function"
    },
    {
      "constant": false,
      "inputs": [
        {
          "name": "_key",
          "type": "bytes32"
        }
      ],
      "name": "deleteAddress",
      "outputs": [],
      "payable": false,
      "stateMutability": "nonpayable",
      "type": "function"
    },
    {
      "constant": false,
      "inputs": [
        {
          "name": "_key",
          "type": "bytes32"
        }
      ],
      "name": "deleteUint",
      "outputs": [],
      "payable": false,
      "stateMutability": "nonpayable",
      "type": "function"
    },
    {
      "constant": false,
      "inputs": [
        {
          "name": "_key",
          "type": "bytes32"
        }
      ],
      "name": "deleteString",
      "outputs": [],
      "payable": false,
      "stateMutability": "nonpayable",
      "type": "function"
    },
    {
      "constant": false,
      "inputs": [
        {
          "name": "_key",
          "type": "bytes32"
        }
      ],
      "name": "deleteBytes",
      "outputs": [],
      "payable": false,
      "stateMutability": "nonpayable",
      "type": "function"
    },
    {
      "constant": false,
      "inputs": [
        {
          "name": "_key",
          "type": "bytes32"
        }
      ],
      "name": "deleteBytes32",
      "outputs": [],
      "payable": false,
      "stateMutability": "nonpayable",
      "type": "function"
    },
    {
      "constant": false,
      "inputs": [
        {
          "name": "_key",
          "type": "bytes32"
        }
      ],
      "name": "deleteBool",
      "outputs": [],
      "payable": false,
      "stateMutability": "nonpayable",
      "type": "function"
    },
    {
      "constant": false,
      "inputs": [
        {
          "name": "_key",
          "type": "bytes32"
        }
      ],
      "name": "deleteInt",
      "outputs": [],
      "payable": false,
      "stateMutability": "nonpayable",
      "type": "function"
    }
  ],
  "bytecode": "0x608060405234801561001057600080fd5b50604051602080610f39833981018060405281019080805190602001909291905050506001600560008360405160200180807f6f776e65720000000000000000000000000000000000000000000000000000008152506005018273ffffffffffffffffffffffffffffffffffffffff1673ffffffffffffffffffffffffffffffffffffffff166c010000000000000000000000000281526014019150506040516020818303038152906040526040518082805190602001908083835b6020831015156100f157805182526020820191506020810190506020830392506100cc565b6001836020036101000a03801982511681845116808217855250505050505090500191505060405180910390206000191660001916815260200190815260200160002060006101000a81548160ff0219169083151502179055508073ffffffffffffffffffffffffffffffffffffffff167fc4c1070d0f2024a86b65e5cd6ab9a10b55b81e745447408c36235e227d1f5eba60405160405180910390a250610d9b8061019e6000396000f30060806040526004361061011d576000357c0100000000000000000000000000000000000000000000000000000000900463ffffffff168063031578af1461012257806304f49a3a1461016f5780630b9adc57146101e05780630e14a376146102115780632c62ff2d146102425780632e28d0841461027357806335f7ff63146102bc5780633b7bfda0146103665780633e49bed0146103af5780634a3270d7146103ea5780634e91db0814610494578063616b59f6146104d35780636e89955014610504578063789c617c1461054d5780638c16009514610592578063a855d4ce146105c3578063abfdcced14610608578063ca446dd914610645578063e2a4853a14610696578063e2b202bf146106d1578063f6bb3cc414610702575b600080fd5b34801561012e57600080fd5b506101516004803603810190808035600019169060200190929190505050610733565b60405180826000191660001916815260200191505060405180910390f35b34801561017b57600080fd5b5061019e600480360381019080803560001916906020019092919050505061074b565b604051808273ffffffffffffffffffffffffffffffffffffffff1673ffffffffffffffffffffffffffffffffffffffff16815260200191505060405180910390f35b3480156101ec57600080fd5b5061020f600480360381019080803560001916906020019092919050505061077e565b005b34801561021d57600080fd5b5061024060048036038101908080356000191690602001909291905050506107a0565b005b34801561024e57600080fd5b5061027160048036038101908080356000191690602001909291905050506107e1565b005b34801561027f57600080fd5b506102ba600480360381019080803560001916906020019092919080359060200190820180359060200191909192939192939050505061080f565b005b3480156102c857600080fd5b506102eb600480360381019080803560001916906020019092919050505061083f565b6040518080602001828103825283818151815260200191508051906020019080838360005b8381101561032b578082015181840152602081019050610310565b50505050905090810190601f1680156103585780820380516001836020036101000a031916815260200191505b509250505060405180910390f35b34801561037257600080fd5b5061039560048036038101908080356000191690602001909291905050506108ef565b604051808215151515815260200191505060405180910390f35b3480156103bb57600080fd5b506103e860048036038101908080356000191690602001909291908035906020019092919050505061090f565b005b3480156103f657600080fd5b506104196004803603810190808035600019169060200190929190505050610933565b6040518080602001828103825283818151815260200191508051906020019080838360005b8381101561045957808201518184015260208101905061043e565b50505050905090810190601f1680156104865780820380516001836020036101000a031916815260200191505b509250505060405180910390f35b3480156104a057600080fd5b506104d1600480360381019080803560001916906020019092919080356000191690602001909291905050506109e3565b005b3480156104df57600080fd5b506105026004803603810190808035600019169060200190929190505050610a0b565b005b34801561051057600080fd5b5061054b6004803603810190808035600019169060200190929190803590602001908201803590602001919091929391929390505050610a35565b005b34801561055957600080fd5b5061057c6004803603810190808035600019169060200190929190505050610a65565b6040518082815260200191505060405180910390f35b34801561059e57600080fd5b506105c16004803603810190808035600019169060200190929190505050610a7d565b005b3480156105cf57600080fd5b506105f26004803603810190808035600019169060200190929190505050610a9f565b6040518082815260200191505060405180910390f35b34801561061457600080fd5b506106436004803603810190808035600019169060200190929190803515159060200190929190505050610ab7565b005b34801561065157600080fd5b506106946004803603810190808035600019169060200190929190803573ffffffffffffffffffffffffffffffffffffffff169060200190929190505050610aee565b005b3480156106a257600080fd5b506106cf600480360381019080803560001916906020019092919080359060200190929190505050610b4c565b005b3480156106dd57600080fd5b506107006004803603810190808035600019169060200190929190505050610b6f565b005b34801561070e57600080fd5b506107316004803603810190808035600019169060200190929190505050610b90565b005b60046020528060005260406000206000915090505481565b60026020528060005260406000206000915054906101000a900473ffffffffffffffffffffffffffffffffffffffff1681565b6004600082600019166000191681526020019081526020016000206000905550565b60026000826000191660001916815260200190815260200160002060006101000a81549073ffffffffffffffffffffffffffffffffffffffff021916905550565b60056000826000191660001916815260200190815260200160002060006101000a81549060ff021916905550565b81816003600086600019166000191681526020019081526020016000209190610839929190610bba565b50505050565b60016020528060005260406000206000915090508054600181600116156101000203166002900480601f0160208091040260200160405190810160405280929190818152602001828054600181600116156101000203166002900480156108e75780601f106108bc576101008083540402835291602001916108e7565b820191906000526020600020905b8154815290600101906020018083116108ca57829003601f168201915b505050505081565b60056020528060005260406000206000915054906101000a900460ff1681565b80600660008460001916600019168152602001908152602001600020819055505050565b60036020528060005260406000206000915090508054600181600116156101000203166002900480601f0160208091040260200160405190810160405280929190818152602001828054600181600116156101000203166002900480156109db5780601f106109b0576101008083540402835291602001916109db565b820191906000526020600020905b8154815290600101906020018083116109be57829003601f168201915b505050505081565b8060046000846000191660001916815260200190815260200160002081600019169055505050565b6003600082600019166000191681526020019081526020016000206000610a329190610c3a565b50565b81816001600086600019166000191681526020019081526020016000209190610a5f929190610c82565b50505050565b60066020528060005260406000206000915090505481565b6006600082600019166000191681526020019081526020016000206000905550565b60006020528060005260406000206000915090505481565b8060056000846000191660001916815260200190815260200160002060006101000a81548160ff0219169083151502179055505050565b8060026000846000191660001916815260200190815260200160002060006101000a81548173ffffffffffffffffffffffffffffffffffffffff021916908373ffffffffffffffffffffffffffffffffffffffff1602179055505050565b806000808460001916600019168152602001908152602001600020819055505050565b60008082600019166000191681526020019081526020016000206000905550565b6001600082600019166000191681526020019081526020016000206000610bb79190610d02565b50565b828054600181600116156101000203166002900490600052602060002090601f016020900481019282601f10610bfb57803560ff1916838001178555610c29565b82800160010185558215610c29579182015b82811115610c28578235825591602001919060010190610c0d565b5b509050610c369190610d4a565b5090565b50805460018160011615610100020316600290046000825580601f10610c605750610c7f565b601f016020900490600052602060002090810190610c7e9190610d4a565b5b50565b828054600181600116156101000203166002900490600052602060002090601f016020900481019282601f10610cc357803560ff1916838001178555610cf1565b82800160010185558215610cf1579182015b82811115610cf0578235825591602001919060010190610cd5565b5b509050610cfe9190610d4a565b5090565b50805460018160011615610100020316600290046000825580601f10610d285750610d47565b601f016020900490600052602060002090810190610d469190610d4a565b5b50565b610d6c91905b80821115610d68576000816000905550600101610d50565b5090565b905600a165627a7a72305820f00f1ec585f93f5b1afda1ff1ce992dfd4c71cf277c122582ec1c7b517d842d80029",
  "source": "pragma solidity ^0.4.19;\n\n// This contract is where all long-term data is stored within the Jynx smart-contract system.\ncontract Database {\n\n// ---------------Storage Variables----------------\n\n    mapping(bytes32 => uint) public uintStorage;\n    mapping(bytes32 => string) public stringStorage;\n    mapping(bytes32 => address) public addressStorage;\n    mapping(bytes32 => bytes) public bytesStorage;\n    mapping(bytes32 => bytes32) public bytes32Storage;\n    mapping(bytes32 => bool) public boolStorage;\n    mapping(bytes32 => int) public intStorage;\n\n\n\n  // This is the first contract to get deployed. Will store all data + references to other contracts\n  constructor(address _ownerOne)\n  public {\n    boolStorage[keccak256(abi.encodePacked(\"owner\", _ownerOne))] = true;\n    emit LogInitialized(_ownerOne);\n  }\n\n\n    // --------------------Set Functions------------------------\n\n    function setAddress(bytes32 _key, address _value)\n    external {\n        addressStorage[_key] = _value;\n    }\n\n    function setUint(bytes32 _key, uint _value)\n    external {\n        uintStorage[_key] = _value;\n    }\n\n    function setString(bytes32 _key, string _value)\n    external {\n        stringStorage[_key] = _value;\n    }\n\n    function setBytes(bytes32 _key, bytes _value)\n    external {\n        bytesStorage[_key] = _value;\n    }\n\n    function setBytes32(bytes32 _key, bytes32 _value)\n    external {\n        bytes32Storage[_key] = _value;\n    }\n\n    function setBool(bytes32 _key, bool _value)\n    external {\n        boolStorage[_key] = _value;\n    }\n\n    function setInt(bytes32 _key, int _value)\n    external {\n        intStorage[_key] = _value;\n    }\n\n     // -------------- Deletion Functions ------------------\n\n    function deleteAddress(bytes32 _key)\n    external {\n        delete addressStorage[_key];\n    }\n\n    function deleteUint(bytes32 _key)\n    external {\n        delete uintStorage[_key];\n    }\n\n    function deleteString(bytes32 _key)\n    external {\n        delete stringStorage[_key];\n    }\n\n    function deleteBytes(bytes32 _key)\n    external {\n        delete bytesStorage[_key];\n    }\n\n    function deleteBytes32(bytes32 _key)\n    external {\n        delete bytes32Storage[_key];\n    }\n\n    function deleteBool(bytes32 _key)\n    external {\n        delete boolStorage[_key];\n    }\n\n    function deleteInt(bytes32 _key)\n    external {\n        delete intStorage[_key];\n    }\n\n\n    event LogInitialized(address indexed _ownerOne);\n}\n",
  "sourcePath": "/home/rabbit/Documents/Jynx/code/walletIdentifier/GasComparison/contracts/Database.sol",
  "compiler": {
    "name": "solc",
    "version": "0.4.24+commit.e67f0147.Emscripten.clang"
  },
  "schemaVersion": "2.0.0",
  "updatedAt": "2018-05-29T04:59:30.491Z"
}