{
  "contractName": "StringTest",
  "abi": [
    {
      "constant": true,
      "inputs": [],
      "name": "database",
      "outputs": [
        {
          "name": "",
          "type": "address"
        }
      ],
      "payable": false,
      "stateMutability": "view",
      "type": "function"
    },
    {
      "inputs": [
        {
          "name": "_database",
          "type": "address"
        }
      ],
      "payable": false,
      "stateMutability": "nonpayable",
      "type": "constructor"
    },
    {
      "constant": false,
      "inputs": [
        {
          "name": "_param",
          "type": "uint256"
        }
      ],
      "name": "storingTheUintEncodePacked",
      "outputs": [
        {
          "name": "",
          "type": "bool"
        }
      ],
      "payable": false,
      "stateMutability": "nonpayable",
      "type": "function"
    },
    {
      "constant": false,
      "inputs": [
        {
          "name": "_param",
          "type": "uint256"
        }
      ],
      "name": "storingTheUintEncode",
      "outputs": [
        {
          "name": "",
          "type": "bool"
        }
      ],
      "payable": false,
      "stateMutability": "nonpayable",
      "type": "function"
    },
    {
      "constant": false,
      "inputs": [
        {
          "name": "_selector",
          "type": "bytes4"
        },
        {
          "name": "_param",
          "type": "uint256"
        }
      ],
      "name": "storingTheUintEncodeWithSelector",
      "outputs": [
        {
          "name": "",
          "type": "bool"
        }
      ],
      "payable": false,
      "stateMutability": "nonpayable",
      "type": "function"
    },
    {
      "constant": false,
      "inputs": [
        {
          "name": "_signature",
          "type": "string"
        },
        {
          "name": "_param",
          "type": "uint256"
        }
      ],
      "name": "storingTheUintEncodeWithSignature",
      "outputs": [
        {
          "name": "",
          "type": "bool"
        }
      ],
      "payable": false,
      "stateMutability": "nonpayable",
      "type": "function"
    },
    {
      "constant": false,
      "inputs": [
        {
          "name": "_theString",
          "type": "string"
        }
      ],
      "name": "storingTheStringEncodePacked",
      "outputs": [
        {
          "name": "",
          "type": "bool"
        }
      ],
      "payable": false,
      "stateMutability": "nonpayable",
      "type": "function"
    },
    {
      "constant": false,
      "inputs": [
        {
          "name": "_theString",
          "type": "string"
        }
      ],
      "name": "storingTheStringEncode",
      "outputs": [
        {
          "name": "",
          "type": "bool"
        }
      ],
      "payable": false,
      "stateMutability": "nonpayable",
      "type": "function"
    },
    {
      "constant": false,
      "inputs": [
        {
          "name": "_selector",
          "type": "bytes4"
        },
        {
          "name": "_theString",
          "type": "string"
        }
      ],
      "name": "storingTheStringEncodeWithSelector",
      "outputs": [
        {
          "name": "",
          "type": "bool"
        }
      ],
      "payable": false,
      "stateMutability": "nonpayable",
      "type": "function"
    },
    {
      "constant": false,
      "inputs": [
        {
          "name": "_signature",
          "type": "string"
        },
        {
          "name": "_theString",
          "type": "string"
        }
      ],
      "name": "storingTheStringEncodeWithSignature",
      "outputs": [
        {
          "name": "",
          "type": "bool"
        }
      ],
      "payable": false,
      "stateMutability": "nonpayable",
      "type": "function"
    },
    {
      "constant": false,
      "inputs": [
        {
          "name": "_param",
          "type": "address"
        }
      ],
      "name": "storingTheAddressEncodePacked",
      "outputs": [
        {
          "name": "",
          "type": "bool"
        }
      ],
      "payable": false,
      "stateMutability": "nonpayable",
      "type": "function"
    },
    {
      "constant": false,
      "inputs": [
        {
          "name": "_param",
          "type": "address"
        }
      ],
      "name": "storingTheAddressEncode",
      "outputs": [
        {
          "name": "",
          "type": "bool"
        }
      ],
      "payable": false,
      "stateMutability": "nonpayable",
      "type": "function"
    },
    {
      "constant": false,
      "inputs": [
        {
          "name": "_selector",
          "type": "bytes4"
        },
        {
          "name": "_param",
          "type": "address"
        }
      ],
      "name": "storingTheAddressEncodeWithSelector",
      "outputs": [
        {
          "name": "",
          "type": "bool"
        }
      ],
      "payable": false,
      "stateMutability": "nonpayable",
      "type": "function"
    },
    {
      "constant": false,
      "inputs": [
        {
          "name": "_signature",
          "type": "string"
        },
        {
          "name": "_param",
          "type": "address"
        }
      ],
      "name": "storingTheAddressEncodeWithSignature",
      "outputs": [
        {
          "name": "",
          "type": "bool"
        }
      ],
      "payable": false,
      "stateMutability": "nonpayable",
      "type": "function"
    },
    {
      "constant": false,
      "inputs": [
        {
          "name": "_param",
          "type": "bytes"
        }
      ],
      "name": "storingTheBytesEncodePacked",
      "outputs": [
        {
          "name": "",
          "type": "bool"
        }
      ],
      "payable": false,
      "stateMutability": "nonpayable",
      "type": "function"
    },
    {
      "constant": false,
      "inputs": [
        {
          "name": "_param",
          "type": "bytes"
        }
      ],
      "name": "storingTheBytesEncode",
      "outputs": [
        {
          "name": "",
          "type": "bool"
        }
      ],
      "payable": false,
      "stateMutability": "nonpayable",
      "type": "function"
    },
    {
      "constant": false,
      "inputs": [
        {
          "name": "_selector",
          "type": "bytes4"
        },
        {
          "name": "_param",
          "type": "bytes"
        }
      ],
      "name": "storingTheBytesEncodeWithSelector",
      "outputs": [
        {
          "name": "",
          "type": "bool"
        }
      ],
      "payable": false,
      "stateMutability": "nonpayable",
      "type": "function"
    },
    {
      "constant": false,
      "inputs": [
        {
          "name": "_signature",
          "type": "string"
        },
        {
          "name": "_param",
          "type": "bytes"
        }
      ],
      "name": "storingTheBytesEncodeWithSignature",
      "outputs": [
        {
          "name": "",
          "type": "bool"
        }
      ],
      "payable": false,
      "stateMutability": "nonpayable",
      "type": "function"
    },
    {
      "constant": false,
      "inputs": [
        {
          "name": "_param",
          "type": "bytes32"
        }
      ],
      "name": "storingTheBytes32EncodePacked",
      "outputs": [
        {
          "name": "",
          "type": "bool"
        }
      ],
      "payable": false,
      "stateMutability": "nonpayable",
      "type": "function"
    },
    {
      "constant": false,
      "inputs": [
        {
          "name": "_param",
          "type": "bytes32"
        }
      ],
      "name": "storingTheBytes32Encode",
      "outputs": [
        {
          "name": "",
          "type": "bool"
        }
      ],
      "payable": false,
      "stateMutability": "nonpayable",
      "type": "function"
    },
    {
      "constant": false,
      "inputs": [
        {
          "name": "_selector",
          "type": "bytes4"
        },
        {
          "name": "_param",
          "type": "bytes32"
        }
      ],
      "name": "storingTheBytes32EncodeWithSelector",
      "outputs": [
        {
          "name": "",
          "type": "bool"
        }
      ],
      "payable": false,
      "stateMutability": "nonpayable",
      "type": "function"
    },
    {
      "constant": false,
      "inputs": [
        {
          "name": "_signature",
          "type": "string"
        },
        {
          "name": "_param",
          "type": "bytes32"
        }
      ],
      "name": "storingTheBytes32EncodeWithSignature",
      "outputs": [
        {
          "name": "",
          "type": "bool"
        }
      ],
      "payable": false,
      "stateMutability": "nonpayable",
      "type": "function"
    },
    {
      "constant": false,
      "inputs": [
        {
          "name": "_param",
          "type": "bool"
        }
      ],
      "name": "storingTheBoolEncodePacked",
      "outputs": [
        {
          "name": "",
          "type": "bool"
        }
      ],
      "payable": false,
      "stateMutability": "nonpayable",
      "type": "function"
    },
    {
      "constant": false,
      "inputs": [
        {
          "name": "_param",
          "type": "bool"
        }
      ],
      "name": "storingTheBoolEncode",
      "outputs": [
        {
          "name": "",
          "type": "bool"
        }
      ],
      "payable": false,
      "stateMutability": "nonpayable",
      "type": "function"
    },
    {
      "constant": false,
      "inputs": [
        {
          "name": "_selector",
          "type": "bytes4"
        },
        {
          "name": "_param",
          "type": "bool"
        }
      ],
      "name": "storingTheBoolEncodeWithSelector",
      "outputs": [
        {
          "name": "",
          "type": "bool"
        }
      ],
      "payable": false,
      "stateMutability": "nonpayable",
      "type": "function"
    },
    {
      "constant": false,
      "inputs": [
        {
          "name": "_signature",
          "type": "string"
        },
        {
          "name": "_param",
          "type": "bool"
        }
      ],
      "name": "storingTheBoolEncodeWithSignature",
      "outputs": [
        {
          "name": "",
          "type": "bool"
        }
      ],
      "payable": false,
      "stateMutability": "nonpayable",
      "type": "function"
    },
    {
      "constant": false,
      "inputs": [
        {
          "name": "_param",
          "type": "int256"
        }
      ],
      "name": "storingTheIntEncodePacked",
      "outputs": [
        {
          "name": "",
          "type": "bool"
        }
      ],
      "payable": false,
      "stateMutability": "nonpayable",
      "type": "function"
    },
    {
      "constant": false,
      "inputs": [
        {
          "name": "_param",
          "type": "int256"
        }
      ],
      "name": "storingTheIntEncode",
      "outputs": [
        {
          "name": "",
          "type": "bool"
        }
      ],
      "payable": false,
      "stateMutability": "nonpayable",
      "type": "function"
    },
    {
      "constant": false,
      "inputs": [
        {
          "name": "_selector",
          "type": "bytes4"
        },
        {
          "name": "_param",
          "type": "int256"
        }
      ],
      "name": "storingTheIntEncodeWithSelector",
      "outputs": [
        {
          "name": "",
          "type": "bool"
        }
      ],
      "payable": false,
      "stateMutability": "nonpayable",
      "type": "function"
    },
    {
      "constant": false,
      "inputs": [
        {
          "name": "_signature",
          "type": "string"
        },
        {
          "name": "_param",
          "type": "int256"
        }
      ],
      "name": "storingTheIntEncodeWithSignature",
      "outputs": [
        {
          "name": "",
          "type": "bool"
        }
      ],
      "payable": false,
      "stateMutability": "nonpayable",
      "type": "function"
    }
  ],
  "bytecode": "0x608060405260008060146101000a81548160ff02191690831515021790555034801561002a57600080fd5b5060405160208061430e83398101806040528101908080519060200190929190505050806000806101000a81548173ffffffffffffffffffffffffffffffffffffffff021916908373ffffffffffffffffffffffffffffffffffffffff160217905550506142718061009d6000396000f300608060405260043610610174576000357c0100000000000000000000000000000000000000000000000000000000900463ffffffff168062ca4df41461017957806301455ebf146102235780630a2e82461461026c5780630f840b7414610316578063130061f41461035b5780631827f215146103a25780631b51b64b14610423578063232bb7ce146104a7578063248da4ce1461053257806329f42162146105f95780632fd3f4691461066b5780633dc4b988146106c657806348e79796146107215780634a698b8c1461078f5780634b69ebc614610810578063713b563f1461085957806374744068146108b0578063785b61b21461093f5780637f3ebeea146109cc5780638222dcf714610a3c5780638971460c14610abd5780639681fbe914610b04578063bdcf037214610b49578063c276fd2614610bb7578063cfa1e2ab14610c38578063e1be6deb14610c7d578063e317766214610d1e578063e6f3ba0314610de5578063f64f8f7314610e70575b600080fd5b34801561018557600080fd5b5061020960048036038101908080357bffffffffffffffffffffffffffffffffffffffffffffffffffffffff19169060200190929190803590602001908201803590602001908080601f0160208091040260200160405190810160405280939291908181526020018383808284378201915050505050509192919290505050610eb5565b604051808215151515815260200191505060405180910390f35b34801561022f57600080fd5b5061025260048036038101908080356000191690602001909291905050506110df565b604051808215151515815260200191505060405180910390f35b34801561027857600080fd5b506102fc60048036038101908080357bffffffffffffffffffffffffffffffffffffffffffffffffffffffff19169060200190929190803590602001908201803590602001908080601f016020809104026020016040519081016040528093929190818152602001838380828437820191505050505050919291929050505061125c565b604051808215151515815260200191505060405180910390f35b34801561032257600080fd5b5061034160048036038101908080359060200190929190505050611486565b604051808215151515815260200191505060405180910390f35b34801561036757600080fd5b506103886004803603810190808035151590602001909291905050506115ea565b604051808215151515815260200191505060405180910390f35b3480156103ae57600080fd5b50610409600480360381019080803590602001908201803590602001908080601f0160208091040260200160405190810160405280939291908181526020018383808284378201915050505050509192919290505050611752565b604051808215151515815260200191505060405180910390f35b34801561042f57600080fd5b5061048d60048036038101908080357bffffffffffffffffffffffffffffffffffffffffffffffffffffffff19169060200190929190803573ffffffffffffffffffffffffffffffffffffffff16906020019092919050505061191b565b604051808215151515815260200191505060405180910390f35b3480156104b357600080fd5b50610518600480360381019080803590602001908201803590602001908080601f016020809104026020016040519081016040528093929190818152602001838380828437820191505050505050919291929080359060200190929190505050611b0c565b604051808215151515815260200191505060405180910390f35b34801561053e57600080fd5b506105df600480360381019080803590602001908201803590602001908080601f0160208091040260200160405190810160405280939291908181526020018383808284378201915050505050509192919290803590602001908201803590602001908080601f0160208091040260200160405190810160405280939291908181526020018383808284378201915050505050509192919290505050611d33565b604051808215151515815260200191505060405180910390f35b34801561060557600080fd5b5061065160048036038101908080357bffffffffffffffffffffffffffffffffffffffffffffffffffffffff191690602001909291908035600019169060200190929190505050611fbf565b604051808215151515815260200191505060405180910390f35b34801561067757600080fd5b506106ac600480360381019080803573ffffffffffffffffffffffffffffffffffffffff16906020019092919050505061218c565b604051808215151515815260200191505060405180910390f35b3480156106d257600080fd5b50610707600480360381019080803573ffffffffffffffffffffffffffffffffffffffff16906020019092919050505061231c565b604051808215151515815260200191505060405180910390f35b34801561072d57600080fd5b5061077560048036038101908080357bffffffffffffffffffffffffffffffffffffffffffffffffffffffff19169060200190929190803590602001909291905050506124bd565b604051808215151515815260200191505060405180910390f35b34801561079b57600080fd5b506107f6600480360381019080803590602001908201803590602001908080601f0160208091040260200160405190810160405280939291908181526020018383808284378201915050505050509192919290505050612682565b604051808215151515815260200191505060405180910390f35b34801561081c57600080fd5b5061083f600480360381019080803560001916906020019092919050505061285c565b604051808215151515815260200191505060405180910390f35b34801561086557600080fd5b5061086e6129c8565b604051808273ffffffffffffffffffffffffffffffffffffffff1673ffffffffffffffffffffffffffffffffffffffff16815260200191505060405180910390f35b3480156108bc57600080fd5b50610925600480360381019080803590602001908201803590602001908080601f016020809104026020016040519081016040528093929190818152602001838380828437820191505050505050919291929080356000191690602001909291905050506129ed565b604051808215151515815260200191505060405180910390f35b34801561094b57600080fd5b506109b2600480360381019080803590602001908201803590602001908080601f0160208091040260200160405190810160405280939291908181526020018383808284378201915050505050509192919290803515159060200190929190505050612c1c565b604051808215151515815260200191505060405180910390f35b3480156109d857600080fd5b50610a2260048036038101908080357bffffffffffffffffffffffffffffffffffffffffffffffffffffffff19169060200190929190803515159060200190929190505050612e47565b604051808215151515815260200191505060405180910390f35b348015610a4857600080fd5b50610aa3600480360381019080803590602001908201803590602001908080601f0160208091040260200160405190810160405280939291908181526020018383808284378201915050505050509192919290505050613010565b604051808215151515815260200191505060405180910390f35b348015610ac957600080fd5b50610aea6004803603810190808035151590602001909291905050506131ea565b604051808215151515815260200191505060405180910390f35b348015610b1057600080fd5b50610b2f60048036038101908080359060200190929190505050613363565b604051808215151515815260200191505060405180910390f35b348015610b5557600080fd5b50610b9d60048036038101908080357bffffffffffffffffffffffffffffffffffffffffffffffffffffffff19169060200190929190803590602001909291905050506134c7565b604051808215151515815260200191505060405180910390f35b348015610bc357600080fd5b50610c1e600480360381019080803590602001908201803590602001908080601f016020809104026020016040519081016040528093929190818152602001838380828437820191505050505050919291929050505061368c565b604051808215151515815260200191505060405180910390f35b348015610c4457600080fd5b50610c6360048036038101908080359060200190929190505050613855565b604051808215151515815260200191505060405180910390f35b348015610c8957600080fd5b50610d04600480360381019080803590602001908201803590602001908080601f0160208091040260200160405190810160405280939291908181526020018383808284378201915050505050509192919290803573ffffffffffffffffffffffffffffffffffffffff1690602001909291905050506139ca565b604051808215151515815260200191505060405180910390f35b348015610d2a57600080fd5b50610dcb600480360381019080803590602001908201803590602001908080601f0160208091040260200160405190810160405280939291908181526020018383808284378201915050505050509192919290803590602001908201803590602001908080601f0160208091040260200160405190810160405280939291908181526020018383808284378201915050505050509192919290505050613c1d565b604051808215151515815260200191505060405180910390f35b348015610df157600080fd5b50610e56600480360381019080803590602001908201803590602001908080601f016020809104026020016040519081016040528093929190818152602001838380828437820191505050505050919291929080359060200190929190505050613ea9565b604051808215151515815260200191505060405180910390f35b348015610e7c57600080fd5b50610e9b600480360381019080803590602001909291905050506140d0565b604051808215151515815260200191505060405180910390f35b60008060009054906101000a900473ffffffffffffffffffffffffffffffffffffffff1673ffffffffffffffffffffffffffffffffffffffff16632e28d084846040516024018080602001828103825260188152602001807f757365726e616d652f6964656e7469666965722d746573740000000000000000815250602001915050604051602081830303815290604052907bffffffffffffffffffffffffffffffffffffffffffffffffffffffff19166020820180517bffffffffffffffffffffffffffffffffffffffffffffffffffffffff83818316178352505050506040518082805190602001908083835b602083101515610fc95780518252602082019150602081019050602083039250610fa4565b6001836020036101000a0380198251168184511680821785525050505050509050019150506040518091039020846040518363ffffffff167c010000000000000000000000000000000000000000000000000000000002815260040180836000191660001916815260200180602001828103825283818151815260200191508051906020019080838360005b83811015611070578082015181840152602081019050611055565b50505050905090810190601f16801561109d5780820380516001836020036101000a031916815260200191505b509350505050600060405180830381600087803b1580156110bd57600080fd5b505af11580156110d1573d6000803e3d6000fd5b505050506001905092915050565b60008060009054906101000a900473ffffffffffffffffffffffffffffffffffffffff1673ffffffffffffffffffffffffffffffffffffffff16634e91db086040516020018080602001828103825260188152602001807f757365726e616d652f6964656e7469666965722d7465737400000000000000008152506020019150506040516020818303038152906040526040518082805190602001908083835b6020831015156111a4578051825260208201915060208101905060208303925061117f565b6001836020036101000a0380198251168184511680821785525050505050509050019150506040518091039020846040518363ffffffff167c0100000000000000000000000000000000000000000000000000000000028152600401808360001916600019168152602001826000191660001916815260200192505050600060405180830381600087803b15801561123b57600080fd5b505af115801561124f573d6000803e3d6000fd5b5050505060019050919050565b60008060009054906101000a900473ffffffffffffffffffffffffffffffffffffffff1673ffffffffffffffffffffffffffffffffffffffff16636e899550846040516024018080602001828103825260188152602001807f757365726e616d652f6964656e7469666965722d746573740000000000000000815250602001915050604051602081830303815290604052907bffffffffffffffffffffffffffffffffffffffffffffffffffffffff19166020820180517bffffffffffffffffffffffffffffffffffffffffffffffffffffffff83818316178352505050506040518082805190602001908083835b602083101515611370578051825260208201915060208101905060208303925061134b565b6001836020036101000a0380198251168184511680821785525050505050509050019150506040518091039020846040518363ffffffff167c010000000000000000000000000000000000000000000000000000000002815260040180836000191660001916815260200180602001828103825283818151815260200191508051906020019080838360005b838110156114175780820151818401526020810190506113fc565b50505050905090810190601f1680156114445780820380516001836020036101000a031916815260200191505b509350505050600060405180830381600087803b15801561146457600080fd5b505af1158015611478573d6000803e3d6000fd5b505050506001905092915050565b60008060009054906101000a900473ffffffffffffffffffffffffffffffffffffffff1673ffffffffffffffffffffffffffffffffffffffff1663e2a4853a60405160200180807f757365726e616d652f6964656e7469666965722d74657374000000000000000081525060180190506040516020818303038152906040526040518082805190602001908083835b60208310151561153a5780518252602082019150602081019050602083039250611515565b6001836020036101000a0380198251168184511680821785525050505050509050019150506040518091039020846040518363ffffffff167c010000000000000000000000000000000000000000000000000000000002815260040180836000191660001916815260200182815260200192505050600060405180830381600087803b1580156115c957600080fd5b505af11580156115dd573d6000803e3d6000fd5b5050505060019050919050565b60008060009054906101000a900473ffffffffffffffffffffffffffffffffffffffff1673ffffffffffffffffffffffffffffffffffffffff1663abfdcced60405160200180807f757365726e616d652f6964656e7469666965722d74657374000000000000000081525060180190506040516020818303038152906040526040518082805190602001908083835b60208310151561169e5780518252602082019150602081019050602083039250611679565b6001836020036101000a0380198251168184511680821785525050505050509050019150506040518091039020846040518363ffffffff167c01000000000000000000000000000000000000000000000000000000000281526004018083600019166000191681526020018215151515815260200192505050600060405180830381600087803b15801561173157600080fd5b505af1158015611745573d6000803e3d6000fd5b5050505060019050919050565b60008060009054906101000a900473ffffffffffffffffffffffffffffffffffffffff1673ffffffffffffffffffffffffffffffffffffffff16632e28d08460405160200180807f757365726e616d652f6964656e7469666965722d74657374000000000000000081525060180190506040516020818303038152906040526040518082805190602001908083835b60208310151561180657805182526020820191506020810190506020830392506117e1565b6001836020036101000a0380198251168184511680821785525050505050509050019150506040518091039020846040518363ffffffff167c010000000000000000000000000000000000000000000000000000000002815260040180836000191660001916815260200180602001828103825283818151815260200191508051906020019080838360005b838110156118ad578082015181840152602081019050611892565b50505050905090810190601f1680156118da5780820380516001836020036101000a031916815260200191505b509350505050600060405180830381600087803b1580156118fa57600080fd5b505af115801561190e573d6000803e3d6000fd5b5050505060019050919050565b60008060009054906101000a900473ffffffffffffffffffffffffffffffffffffffff1673ffffffffffffffffffffffffffffffffffffffff1663ca446dd9846040516024018080602001828103825260188152602001807f757365726e616d652f6964656e7469666965722d746573740000000000000000815250602001915050604051602081830303815290604052907bffffffffffffffffffffffffffffffffffffffffffffffffffffffff19166020820180517bffffffffffffffffffffffffffffffffffffffffffffffffffffffff83818316178352505050506040518082805190602001908083835b602083101515611a2f5780518252602082019150602081019050602083039250611a0a565b6001836020036101000a0380198251168184511680821785525050505050509050019150506040518091039020846040518363ffffffff167c01000000000000000000000000000000000000000000000000000000000281526004018083600019166000191681526020018273ffffffffffffffffffffffffffffffffffffffff1673ffffffffffffffffffffffffffffffffffffffff16815260200192505050600060405180830381600087803b158015611aea57600080fd5b505af1158015611afe573d6000803e3d6000fd5b505050506001905092915050565b60008060009054906101000a900473ffffffffffffffffffffffffffffffffffffffff1673ffffffffffffffffffffffffffffffffffffffff1663e2a4853a846040516024018080602001828103825260188152602001807f757365726e616d652f6964656e7469666965722d746573740000000000000000815250602001915050604051602081830303815290604052906040518082805190602001908083835b602083101515611bd35780518252602082019150602081019050602083039250611bae565b6001836020036101000a03801982511681845116808217855250505050505090500191505060405180910390207bffffffffffffffffffffffffffffffffffffffffffffffffffffffff19166020820180517bffffffffffffffffffffffffffffffffffffffffffffffffffffffff83818316178352505050506040518082805190602001908083835b602083101515611c825780518252602082019150602081019050602083039250611c5d565b6001836020036101000a0380198251168184511680821785525050505050509050019150506040518091039020846040518363ffffffff167c010000000000000000000000000000000000000000000000000000000002815260040180836000191660001916815260200182815260200192505050600060405180830381600087803b158015611d1157600080fd5b505af1158015611d25573d6000803e3d6000fd5b505050506001905092915050565b60008060009054906101000a900473ffffffffffffffffffffffffffffffffffffffff1673ffffffffffffffffffffffffffffffffffffffff16636e899550846040516024018080602001828103825260188152602001807f757365726e616d652f6964656e7469666965722d746573740000000000000000815250602001915050604051602081830303815290604052906040518082805190602001908083835b602083101515611dfa5780518252602082019150602081019050602083039250611dd5565b6001836020036101000a03801982511681845116808217855250505050505090500191505060405180910390207bffffffffffffffffffffffffffffffffffffffffffffffffffffffff19166020820180517bffffffffffffffffffffffffffffffffffffffffffffffffffffffff83818316178352505050506040518082805190602001908083835b602083101515611ea95780518252602082019150602081019050602083039250611e84565b6001836020036101000a0380198251168184511680821785525050505050509050019150506040518091039020846040518363ffffffff167c010000000000000000000000000000000000000000000000000000000002815260040180836000191660001916815260200180602001828103825283818151815260200191508051906020019080838360005b83811015611f50578082015181840152602081019050611f35565b50505050905090810190601f168015611f7d5780820380516001836020036101000a031916815260200191505b509350505050600060405180830381600087803b158015611f9d57600080fd5b505af1158015611fb1573d6000803e3d6000fd5b505050506001905092915050565b60008060009054906101000a900473ffffffffffffffffffffffffffffffffffffffff1673ffffffffffffffffffffffffffffffffffffffff16634e91db08846040516024018080602001828103825260188152602001807f757365726e616d652f6964656e7469666965722d746573740000000000000000815250602001915050604051602081830303815290604052907bffffffffffffffffffffffffffffffffffffffffffffffffffffffff19166020820180517bffffffffffffffffffffffffffffffffffffffffffffffffffffffff83818316178352505050506040518082805190602001908083835b6020831015156120d357805182526020820191506020810190506020830392506120ae565b6001836020036101000a0380198251168184511680821785525050505050509050019150506040518091039020846040518363ffffffff167c0100000000000000000000000000000000000000000000000000000000028152600401808360001916600019168152602001826000191660001916815260200192505050600060405180830381600087803b15801561216a57600080fd5b505af115801561217e573d6000803e3d6000fd5b505050506001905092915050565b60008060009054906101000a900473ffffffffffffffffffffffffffffffffffffffff1673ffffffffffffffffffffffffffffffffffffffff1663ca446dd960405160200180807f757365726e616d652f6964656e7469666965722d74657374000000000000000081525060180190506040516020818303038152906040526040518082805190602001908083835b602083101515612240578051825260208201915060208101905060208303925061221b565b6001836020036101000a0380198251168184511680821785525050505050509050019150506040518091039020846040518363ffffffff167c01000000000000000000000000000000000000000000000000000000000281526004018083600019166000191681526020018273ffffffffffffffffffffffffffffffffffffffff1673ffffffffffffffffffffffffffffffffffffffff16815260200192505050600060405180830381600087803b1580156122fb57600080fd5b505af115801561230f573d6000803e3d6000fd5b5050505060019050919050565b60008060009054906101000a900473ffffffffffffffffffffffffffffffffffffffff1673ffffffffffffffffffffffffffffffffffffffff1663ca446dd960405160200180806020018281038252601b8152602001807f757365726e616d652f6964656e746966696575696e742d7465737400000000008152506020019150506040516020818303038152906040526040518082805190602001908083835b6020831015156123e157805182526020820191506020810190506020830392506123bc565b6001836020036101000a0380198251168184511680821785525050505050509050019150506040518091039020846040518363ffffffff167c01000000000000000000000000000000000000000000000000000000000281526004018083600019166000191681526020018273ffffffffffffffffffffffffffffffffffffffff1673ffffffffffffffffffffffffffffffffffffffff16815260200192505050600060405180830381600087803b15801561249c57600080fd5b505af11580156124b0573d6000803e3d6000fd5b5050505060019050919050565b60008060009054906101000a900473ffffffffffffffffffffffffffffffffffffffff1673ffffffffffffffffffffffffffffffffffffffff16633e49bed0846040516024018080602001828103825260188152602001807f757365726e616d652f6964656e7469666965722d746573740000000000000000815250602001915050604051602081830303815290604052907bffffffffffffffffffffffffffffffffffffffffffffffffffffffff19166020820180517bffffffffffffffffffffffffffffffffffffffffffffffffffffffff83818316178352505050506040518082805190602001908083835b6020831015156125d157805182526020820191506020810190506020830392506125ac565b6001836020036101000a0380198251168184511680821785525050505050509050019150506040518091039020846040518363ffffffff167c010000000000000000000000000000000000000000000000000000000002815260040180836000191660001916815260200182815260200192505050600060405180830381600087803b15801561266057600080fd5b505af1158015612674573d6000803e3d6000fd5b505050506001905092915050565b60008060009054906101000a900473ffffffffffffffffffffffffffffffffffffffff1673ffffffffffffffffffffffffffffffffffffffff16632e28d0846040516020018080602001828103825260188152602001807f757365726e616d652f6964656e7469666965722d7465737400000000000000008152506020019150506040516020818303038152906040526040518082805190602001908083835b6020831015156127475780518252602082019150602081019050602083039250612722565b6001836020036101000a0380198251168184511680821785525050505050509050019150506040518091039020846040518363ffffffff167c010000000000000000000000000000000000000000000000000000000002815260040180836000191660001916815260200180602001828103825283818151815260200191508051906020019080838360005b838110156127ee5780820151818401526020810190506127d3565b50505050905090810190601f16801561281b5780820380516001836020036101000a031916815260200191505b509350505050600060405180830381600087803b15801561283b57600080fd5b505af115801561284f573d6000803e3d6000fd5b5050505060019050919050565b60008060009054906101000a900473ffffffffffffffffffffffffffffffffffffffff1673ffffffffffffffffffffffffffffffffffffffff16634e91db0860405160200180807f757365726e616d652f6964656e7469666965722d74657374000000000000000081525060180190506040516020818303038152906040526040518082805190602001908083835b60208310151561291057805182526020820191506020810190506020830392506128eb565b6001836020036101000a0380198251168184511680821785525050505050509050019150506040518091039020846040518363ffffffff167c0100000000000000000000000000000000000000000000000000000000028152600401808360001916600019168152602001826000191660001916815260200192505050600060405180830381600087803b1580156129a757600080fd5b505af11580156129bb573d6000803e3d6000fd5b5050505060019050919050565b6000809054906101000a900473ffffffffffffffffffffffffffffffffffffffff1681565b60008060009054906101000a900473ffffffffffffffffffffffffffffffffffffffff1673ffffffffffffffffffffffffffffffffffffffff16634e91db08846040516024018080602001828103825260188152602001807f757365726e616d652f6964656e7469666965722d746573740000000000000000815250602001915050604051602081830303815290604052906040518082805190602001908083835b602083101515612ab45780518252602082019150602081019050602083039250612a8f565b6001836020036101000a03801982511681845116808217855250505050505090500191505060405180910390207bffffffffffffffffffffffffffffffffffffffffffffffffffffffff19166020820180517bffffffffffffffffffffffffffffffffffffffffffffffffffffffff83818316178352505050506040518082805190602001908083835b602083101515612b635780518252602082019150602081019050602083039250612b3e565b6001836020036101000a0380198251168184511680821785525050505050509050019150506040518091039020846040518363ffffffff167c0100000000000000000000000000000000000000000000000000000000028152600401808360001916600019168152602001826000191660001916815260200192505050600060405180830381600087803b158015612bfa57600080fd5b505af1158015612c0e573d6000803e3d6000fd5b505050506001905092915050565b60008060009054906101000a900473ffffffffffffffffffffffffffffffffffffffff1673ffffffffffffffffffffffffffffffffffffffff1663abfdcced846040516024018080602001828103825260188152602001807f757365726e616d652f6964656e7469666965722d746573740000000000000000815250602001915050604051602081830303815290604052906040518082805190602001908083835b602083101515612ce35780518252602082019150602081019050602083039250612cbe565b6001836020036101000a03801982511681845116808217855250505050505090500191505060405180910390207bffffffffffffffffffffffffffffffffffffffffffffffffffffffff19166020820180517bffffffffffffffffffffffffffffffffffffffffffffffffffffffff83818316178352505050506040518082805190602001908083835b602083101515612d925780518252602082019150602081019050602083039250612d6d565b6001836020036101000a0380198251168184511680821785525050505050509050019150506040518091039020846040518363ffffffff167c01000000000000000000000000000000000000000000000000000000000281526004018083600019166000191681526020018215151515815260200192505050600060405180830381600087803b158015612e2557600080fd5b505af1158015612e39573d6000803e3d6000fd5b505050506001905092915050565b60008060009054906101000a900473ffffffffffffffffffffffffffffffffffffffff1673ffffffffffffffffffffffffffffffffffffffff1663abfdcced846040516024018080602001828103825260188152602001807f757365726e616d652f6964656e7469666965722d746573740000000000000000815250602001915050604051602081830303815290604052907bffffffffffffffffffffffffffffffffffffffffffffffffffffffff19166020820180517bffffffffffffffffffffffffffffffffffffffffffffffffffffffff83818316178352505050506040518082805190602001908083835b602083101515612f5b5780518252602082019150602081019050602083039250612f36565b6001836020036101000a0380198251168184511680821785525050505050509050019150506040518091039020846040518363ffffffff167c01000000000000000000000000000000000000000000000000000000000281526004018083600019166000191681526020018215151515815260200192505050600060405180830381600087803b158015612fee57600080fd5b505af1158015613002573d6000803e3d6000fd5b505050506001905092915050565b60008060009054906101000a900473ffffffffffffffffffffffffffffffffffffffff1673ffffffffffffffffffffffffffffffffffffffff16636e8995506040516020018080602001828103825260188152602001807f757365726e616d652f6964656e7469666965722d7465737400000000000000008152506020019150506040516020818303038152906040526040518082805190602001908083835b6020831015156130d557805182526020820191506020810190506020830392506130b0565b6001836020036101000a0380198251168184511680821785525050505050509050019150506040518091039020846040518363ffffffff167c010000000000000000000000000000000000000000000000000000000002815260040180836000191660001916815260200180602001828103825283818151815260200191508051906020019080838360005b8381101561317c578082015181840152602081019050613161565b50505050905090810190601f1680156131a95780820380516001836020036101000a031916815260200191505b509350505050600060405180830381600087803b1580156131c957600080fd5b505af11580156131dd573d6000803e3d6000fd5b5050505060019050919050565b60008060009054906101000a900473ffffffffffffffffffffffffffffffffffffffff1673ffffffffffffffffffffffffffffffffffffffff1663abfdcced6040516020018080602001828103825260188152602001807f757365726e616d652f6964656e7469666965722d7465737400000000000000008152506020019150506040516020818303038152906040526040518082805190602001908083835b6020831015156132af578051825260208201915060208101905060208303925061328a565b6001836020036101000a0380198251168184511680821785525050505050509050019150506040518091039020846040518363ffffffff167c01000000000000000000000000000000000000000000000000000000000281526004018083600019166000191681526020018215151515815260200192505050600060405180830381600087803b15801561334257600080fd5b505af1158015613356573d6000803e3d6000fd5b5050505060019050919050565b60008060009054906101000a900473ffffffffffffffffffffffffffffffffffffffff1673ffffffffffffffffffffffffffffffffffffffff16633e49bed060405160200180807f757365726e616d652f6964656e7469666965722d74657374000000000000000081525060180190506040516020818303038152906040526040518082805190602001908083835b60208310151561341757805182526020820191506020810190506020830392506133f2565b6001836020036101000a0380198251168184511680821785525050505050509050019150506040518091039020846040518363ffffffff167c010000000000000000000000000000000000000000000000000000000002815260040180836000191660001916815260200182815260200192505050600060405180830381600087803b1580156134a657600080fd5b505af11580156134ba573d6000803e3d6000fd5b5050505060019050919050565b60008060009054906101000a900473ffffffffffffffffffffffffffffffffffffffff1673ffffffffffffffffffffffffffffffffffffffff1663e2a4853a846040516024018080602001828103825260188152602001807f757365726e616d652f6964656e7469666965722d746573740000000000000000815250602001915050604051602081830303815290604052907bffffffffffffffffffffffffffffffffffffffffffffffffffffffff19166020820180517bffffffffffffffffffffffffffffffffffffffffffffffffffffffff83818316178352505050506040518082805190602001908083835b6020831015156135db57805182526020820191506020810190506020830392506135b6565b6001836020036101000a0380198251168184511680821785525050505050509050019150506040518091039020846040518363ffffffff167c010000000000000000000000000000000000000000000000000000000002815260040180836000191660001916815260200182815260200192505050600060405180830381600087803b15801561366a57600080fd5b505af115801561367e573d6000803e3d6000fd5b505050506001905092915050565b60008060009054906101000a900473ffffffffffffffffffffffffffffffffffffffff1673ffffffffffffffffffffffffffffffffffffffff16636e89955060405160200180807f757365726e616d652f6964656e7469666965722d74657374000000000000000081525060180190506040516020818303038152906040526040518082805190602001908083835b602083101515613740578051825260208201915060208101905060208303925061371b565b6001836020036101000a0380198251168184511680821785525050505050509050019150506040518091039020846040518363ffffffff167c010000000000000000000000000000000000000000000000000000000002815260040180836000191660001916815260200180602001828103825283818151815260200191508051906020019080838360005b838110156137e75780820151818401526020810190506137cc565b50505050905090810190601f1680156138145780820380516001836020036101000a031916815260200191505b509350505050600060405180830381600087803b15801561383457600080fd5b505af1158015613848573d6000803e3d6000fd5b5050505060019050919050565b60008060009054906101000a900473ffffffffffffffffffffffffffffffffffffffff1673ffffffffffffffffffffffffffffffffffffffff16633e49bed06040516020018080602001828103825260188152602001807f757365726e616d652f6964656e7469666965722d7465737400000000000000008152506020019150506040516020818303038152906040526040518082805190602001908083835b60208310151561391a57805182526020820191506020810190506020830392506138f5565b6001836020036101000a0380198251168184511680821785525050505050509050019150506040518091039020846040518363ffffffff167c010000000000000000000000000000000000000000000000000000000002815260040180836000191660001916815260200182815260200192505050600060405180830381600087803b1580156139a957600080fd5b505af11580156139bd573d6000803e3d6000fd5b5050505060019050919050565b60008060009054906101000a900473ffffffffffffffffffffffffffffffffffffffff1673ffffffffffffffffffffffffffffffffffffffff1663ca446dd9846040516024018080602001828103825260188152602001807f757365726e616d652f6964656e7469666965722d746573740000000000000000815250602001915050604051602081830303815290604052906040518082805190602001908083835b602083101515613a915780518252602082019150602081019050602083039250613a6c565b6001836020036101000a03801982511681845116808217855250505050505090500191505060405180910390207bffffffffffffffffffffffffffffffffffffffffffffffffffffffff19166020820180517bffffffffffffffffffffffffffffffffffffffffffffffffffffffff83818316178352505050506040518082805190602001908083835b602083101515613b405780518252602082019150602081019050602083039250613b1b565b6001836020036101000a0380198251168184511680821785525050505050509050019150506040518091039020846040518363ffffffff167c01000000000000000000000000000000000000000000000000000000000281526004018083600019166000191681526020018273ffffffffffffffffffffffffffffffffffffffff1673ffffffffffffffffffffffffffffffffffffffff16815260200192505050600060405180830381600087803b158015613bfb57600080fd5b505af1158015613c0f573d6000803e3d6000fd5b505050506001905092915050565b60008060009054906101000a900473ffffffffffffffffffffffffffffffffffffffff1673ffffffffffffffffffffffffffffffffffffffff16632e28d084846040516024018080602001828103825260188152602001807f757365726e616d652f6964656e7469666965722d746573740000000000000000815250602001915050604051602081830303815290604052906040518082805190602001908083835b602083101515613ce45780518252602082019150602081019050602083039250613cbf565b6001836020036101000a03801982511681845116808217855250505050505090500191505060405180910390207bffffffffffffffffffffffffffffffffffffffffffffffffffffffff19166020820180517bffffffffffffffffffffffffffffffffffffffffffffffffffffffff83818316178352505050506040518082805190602001908083835b602083101515613d935780518252602082019150602081019050602083039250613d6e565b6001836020036101000a0380198251168184511680821785525050505050509050019150506040518091039020846040518363ffffffff167c010000000000000000000000000000000000000000000000000000000002815260040180836000191660001916815260200180602001828103825283818151815260200191508051906020019080838360005b83811015613e3a578082015181840152602081019050613e1f565b50505050905090810190601f168015613e675780820380516001836020036101000a031916815260200191505b509350505050600060405180830381600087803b158015613e8757600080fd5b505af1158015613e9b573d6000803e3d6000fd5b505050506001905092915050565b60008060009054906101000a900473ffffffffffffffffffffffffffffffffffffffff1673ffffffffffffffffffffffffffffffffffffffff16633e49bed0846040516024018080602001828103825260188152602001807f757365726e616d652f6964656e7469666965722d746573740000000000000000815250602001915050604051602081830303815290604052906040518082805190602001908083835b602083101515613f705780518252602082019150602081019050602083039250613f4b565b6001836020036101000a03801982511681845116808217855250505050505090500191505060405180910390207bffffffffffffffffffffffffffffffffffffffffffffffffffffffff19166020820180517bffffffffffffffffffffffffffffffffffffffffffffffffffffffff83818316178352505050506040518082805190602001908083835b60208310151561401f5780518252602082019150602081019050602083039250613ffa565b6001836020036101000a0380198251168184511680821785525050505050509050019150506040518091039020846040518363ffffffff167c010000000000000000000000000000000000000000000000000000000002815260040180836000191660001916815260200182815260200192505050600060405180830381600087803b1580156140ae57600080fd5b505af11580156140c2573d6000803e3d6000fd5b505050506001905092915050565b60008060009054906101000a900473ffffffffffffffffffffffffffffffffffffffff1673ffffffffffffffffffffffffffffffffffffffff1663e2a4853a6040516020018080602001828103825260188152602001807f757365726e616d652f6964656e7469666965722d7465737400000000000000008152506020019150506040516020818303038152906040526040518082805190602001908083835b6020831015156141955780518252602082019150602081019050602083039250614170565b6001836020036101000a0380198251168184511680821785525050505050509050019150506040518091039020846040518363ffffffff167c010000000000000000000000000000000000000000000000000000000002815260040180836000191660001916815260200182815260200192505050600060405180830381600087803b15801561422457600080fd5b505af1158015614238573d6000803e3d6000fd5b50505050600190509190505600a165627a7a723058201dccef8867abbd31da8aa7b117375fdc874257487a1d300cecd9e9596b4447ac0029",
  "source": "pragma solidity ^0.4.24;\n\n// ----------- Libraries ----------- //\n\n// ----------- Contracts ----------- //\nimport './Database.sol';\n\ncontract StringTest{\n\n  Database public database;\n  bool private rentrancy_lock = false;\n\n  constructor(address _database)\n  public {\n    database = Database(_database);\n  }\n\n\n /* ------------------------------------------\n                    UINT\n    ------------------------------------------*/\n  function storingTheUintEncodePacked(uint _param)\n  public\n  returns  (bool)\n  {\n    database.setUint(keccak256(abi.encodePacked('username/identifier-test')), _param);\n    return true;\n  }\n\n  function storingTheUintEncode(uint _param)\n  public\n  returns  (bool)\n  {\n    database.setUint(keccak256(abi.encode('username/identifier-test')), _param);\n    return true;\n  }\n\n  function storingTheUintEncodeWithSelector(bytes4 _selector, uint _param)\n  public\n  returns  (bool)\n  {\n    database.setUint(keccak256(abi.encodeWithSelector(_selector, 'username/identifier-test')), _param);\n    return true;\n  }\n\n  function storingTheUintEncodeWithSignature(string _signature, uint _param)\n  public\n  returns  (bool)\n  {\n    database.setUint(keccak256(abi.encodeWithSignature(_signature, 'username/identifier-test')), _param);\n    return true;\n  }\n\n\n  /* ------------------------------------------\n                     STRING\n     ------------------------------------------*/\n  function storingTheStringEncodePacked(string _theString)\n  public\n  returns (bool)\n  {\n    database.setString(keccak256(abi.encodePacked('username/identifier-test')), _theString);\n    return true;\n  }\n\n  function storingTheStringEncode(string _theString)\n  public\n  returns (bool)\n  {\n    database.setString(keccak256(abi.encode('username/identifier-test')), _theString);\n    return true;\n  }\n\n  function storingTheStringEncodeWithSelector(bytes4 _selector, string _theString)\n  public\n  returns (bool)\n  {\n    database.setString(keccak256(abi.encodeWithSelector(_selector, 'username/identifier-test')), _theString);\n    return true;\n  }\n\n  function storingTheStringEncodeWithSignature(string _signature, string _theString)\n  public\n  returns (bool)\n  {\n    database.setString(keccak256(abi.encodeWithSignature(_signature, 'username/identifier-test')), _theString);\n    return true;\n  }\n\n\n  /* ------------------------------------------\n                     ADDRESS\n     ------------------------------------------*/\n  function storingTheAddressEncodePacked(address _param)\n  public\n  returns (bool)\n  {\n    database.setAddress(keccak256(abi.encodePacked('username/identifier-test')), _param);\n    return true;\n  }\n\n  function storingTheAddressEncode(address _param)\n  public\n  returns (bool)\n  {\n    database.setAddress(keccak256(abi.encode('username/identifieuint-test')), _param);\n    return true;\n  }\n\n  function storingTheAddressEncodeWithSelector(bytes4 _selector, address _param)\n  public\n  returns (bool)\n  {\n    database.setAddress(keccak256(abi.encodeWithSelector(_selector, 'username/identifier-test')), _param);\n    return true;\n  }\n\n  function storingTheAddressEncodeWithSignature(string _signature, address _param)\n  public\n  returns (bool)\n  {\n    database.setAddress(keccak256(abi.encodeWithSignature(_signature, 'username/identifier-test')), _param);\n    return true;\n  }\n\n\n  /* ------------------------------------------\n                     BYTES\n     ------------------------------------------*/\n  function storingTheBytesEncodePacked(bytes _param)\n  public\n  returns  (bool)\n  {\n    database.setBytes(keccak256(abi.encodePacked('username/identifier-test')), _param);\n    return true;\n  }\n\n  function storingTheBytesEncode(bytes _param)\n  public\n  returns  (bool)\n  {\n    database.setBytes(keccak256(abi.encode('username/identifier-test')), _param);\n    return true;\n  }\n\n  function storingTheBytesEncodeWithSelector(bytes4 _selector, bytes _param)\n  public\n  returns  (bool)\n  {\n    database.setBytes(keccak256(abi.encodeWithSelector(_selector, 'username/identifier-test')), _param);\n    return true;\n  }\n\n  function storingTheBytesEncodeWithSignature(string _signature, bytes _param)\n  public\n  returns  (bool)\n  {\n    database.setBytes(keccak256(abi.encodeWithSignature(_signature, 'username/identifier-test')), _param);\n    return true;\n  }\n\n\n  /* ------------------------------------------\n                     BYTES32\n     ------------------------------------------*/\n  function storingTheBytes32EncodePacked(bytes32 _param)\n  public\n  returns  (bool)\n  {\n    database.setBytes32(keccak256(abi.encodePacked('username/identifier-test')), _param);\n    return true;\n  }\n\n  function storingTheBytes32Encode(bytes32 _param)\n  public\n  returns  (bool)\n  {\n    database.setBytes32(keccak256(abi.encode('username/identifier-test')), _param);\n    return true;\n  }\n\n  function storingTheBytes32EncodeWithSelector(bytes4 _selector, bytes32 _param)\n  public\n  returns  (bool)\n  {\n    database.setBytes32(keccak256(abi.encodeWithSelector(_selector, 'username/identifier-test')), _param);\n    return true;\n  }\n\n  function storingTheBytes32EncodeWithSignature(string _signature, bytes32 _param)\n  public\n  returns  (bool)\n  {\n    database.setBytes32(keccak256(abi.encodeWithSignature(_signature, 'username/identifier-test')), _param);\n    return true;\n  }\n\n  /* ------------------------------------------\n                     BOOL\n     ------------------------------------------*/\n  function storingTheBoolEncodePacked(bool _param)\n  public\n  returns  (bool)\n  {\n    database.setBool(keccak256(abi.encodePacked('username/identifier-test')), _param);\n    return true;\n  }\n\n  function storingTheBoolEncode(bool _param)\n  public\n  returns  (bool)\n  {\n    database.setBool(keccak256(abi.encode('username/identifier-test')), _param);\n    return true;\n  }\n\n  function storingTheBoolEncodeWithSelector(bytes4 _selector, bool _param)\n  public\n  returns  (bool)\n  {\n    database.setBool(keccak256(abi.encodeWithSelector(_selector, 'username/identifier-test')), _param);\n    return true;\n  }\n\n  function storingTheBoolEncodeWithSignature(string _signature, bool _param)\n  public\n  returns  (bool)\n  {\n    database.setBool(keccak256(abi.encodeWithSignature(_signature, 'username/identifier-test')), _param);\n    return true;\n  }\n\n  /* ------------------------------------------\n                     INT\n     ------------------------------------------*/\n  function storingTheIntEncodePacked(int _param)\n  public\n  returns  (bool)\n  {\n    database.setInt(keccak256(abi.encodePacked('username/identifier-test')), _param);\n    return true;\n  }\n\n  function storingTheIntEncode(int _param)\n  public\n  returns  (bool)\n  {\n    database.setInt(keccak256(abi.encode('username/identifier-test')), _param);\n    return true;\n  }\n\n  function storingTheIntEncodeWithSelector(bytes4 _selector, int _param)\n  public\n  returns  (bool)\n  {\n    database.setInt(keccak256(abi.encodeWithSelector(_selector, 'username/identifier-test')), _param);\n    return true;\n  }\n\n  function storingTheIntEncodeWithSignature(string _signature, int _param)\n  public\n  returns  (bool)\n  {\n    database.setInt(keccak256(abi.encodeWithSignature(_signature, 'username/identifier-test')), _param);\n    return true;\n  }\n}\n",
  "sourcePath": "/home/rabbit/Documents/Jynx/code/walletIdentifier/GasComparison/contracts/StringTest.sol",
  "compiler": {
    "name": "solc",
    "version": "0.4.24+commit.e67f0147.Emscripten.clang"
  },
  "schemaVersion": "2.0.0",
  "updatedAt": "2018-05-29T04:59:30.493Z"
}